{
  "contractName": "EventTicket",
  "abi": [
    {
      "inputs": [],
      "stateMutability": "nonpayable",
      "type": "constructor"
    },
    {
      "anonymous": false,
      "inputs": [
        {
          "indexed": true,
          "internalType": "address",
          "name": "owner",
          "type": "address"
        },
        {
          "indexed": true,
          "internalType": "address",
          "name": "approved",
          "type": "address"
        },
        {
          "indexed": true,
          "internalType": "uint256",
          "name": "tokenId",
          "type": "uint256"
        }
      ],
      "name": "Approval",
      "type": "event"
    },
    {
      "anonymous": false,
      "inputs": [
        {
          "indexed": true,
          "internalType": "address",
          "name": "owner",
          "type": "address"
        },
        {
          "indexed": true,
          "internalType": "address",
          "name": "operator",
          "type": "address"
        },
        {
          "indexed": false,
          "internalType": "bool",
          "name": "approved",
          "type": "bool"
        }
      ],
      "name": "ApprovalForAll",
      "type": "event"
    },
    {
      "anonymous": false,
      "inputs": [
        {
          "indexed": true,
          "internalType": "address",
          "name": "previousOwner",
          "type": "address"
        },
        {
          "indexed": true,
          "internalType": "address",
          "name": "newOwner",
          "type": "address"
        }
      ],
      "name": "OwnershipTransferred",
      "type": "event"
    },
    {
      "anonymous": false,
      "inputs": [
        {
          "indexed": true,
          "internalType": "address",
          "name": "from",
          "type": "address"
        },
        {
          "indexed": true,
          "internalType": "address",
          "name": "to",
          "type": "address"
        },
        {
          "indexed": true,
          "internalType": "uint256",
          "name": "tokenId",
          "type": "uint256"
        }
      ],
      "name": "Transfer",
      "type": "event"
    },
    {
      "inputs": [
        {
          "internalType": "address",
          "name": "to",
          "type": "address"
        },
        {
          "internalType": "uint256",
          "name": "tokenId",
          "type": "uint256"
        }
      ],
      "name": "approve",
      "outputs": [],
      "stateMutability": "nonpayable",
      "type": "function"
    },
    {
      "inputs": [
        {
          "internalType": "address",
          "name": "owner",
          "type": "address"
        }
      ],
      "name": "balanceOf",
      "outputs": [
        {
          "internalType": "uint256",
          "name": "",
          "type": "uint256"
        }
      ],
      "stateMutability": "view",
      "type": "function",
      "constant": true
    },
    {
      "inputs": [
        {
          "internalType": "uint256",
          "name": "tokenId",
          "type": "uint256"
        }
      ],
      "name": "getApproved",
      "outputs": [
        {
          "internalType": "address",
          "name": "",
          "type": "address"
        }
      ],
      "stateMutability": "view",
      "type": "function",
      "constant": true
    },
    {
      "inputs": [
        {
          "internalType": "address",
          "name": "owner",
          "type": "address"
        },
        {
          "internalType": "address",
          "name": "operator",
          "type": "address"
        }
      ],
      "name": "isApprovedForAll",
      "outputs": [
        {
          "internalType": "bool",
          "name": "",
          "type": "bool"
        }
      ],
      "stateMutability": "view",
      "type": "function",
      "constant": true
    },
    {
      "inputs": [],
      "name": "name",
      "outputs": [
        {
          "internalType": "string",
          "name": "",
          "type": "string"
        }
      ],
      "stateMutability": "view",
      "type": "function",
      "constant": true
    },
    {
      "inputs": [],
      "name": "owner",
      "outputs": [
        {
          "internalType": "address",
          "name": "",
          "type": "address"
        }
      ],
      "stateMutability": "view",
      "type": "function",
      "constant": true
    },
    {
      "inputs": [
        {
          "internalType": "uint256",
          "name": "tokenId",
          "type": "uint256"
        }
      ],
      "name": "ownerOf",
      "outputs": [
        {
          "internalType": "address",
          "name": "",
          "type": "address"
        }
      ],
      "stateMutability": "view",
      "type": "function",
      "constant": true
    },
    {
      "inputs": [],
      "name": "renounceOwnership",
      "outputs": [],
      "stateMutability": "nonpayable",
      "type": "function"
    },
    {
      "inputs": [
        {
          "internalType": "address",
          "name": "from",
          "type": "address"
        },
        {
          "internalType": "address",
          "name": "to",
          "type": "address"
        },
        {
          "internalType": "uint256",
          "name": "tokenId",
          "type": "uint256"
        }
      ],
      "name": "safeTransferFrom",
      "outputs": [],
      "stateMutability": "nonpayable",
      "type": "function"
    },
    {
      "inputs": [
        {
          "internalType": "address",
          "name": "from",
          "type": "address"
        },
        {
          "internalType": "address",
          "name": "to",
          "type": "address"
        },
        {
          "internalType": "uint256",
          "name": "tokenId",
          "type": "uint256"
        },
        {
          "internalType": "bytes",
          "name": "data",
          "type": "bytes"
        }
      ],
      "name": "safeTransferFrom",
      "outputs": [],
      "stateMutability": "nonpayable",
      "type": "function"
    },
    {
      "inputs": [
        {
          "internalType": "address",
          "name": "operator",
          "type": "address"
        },
        {
          "internalType": "bool",
          "name": "approved",
          "type": "bool"
        }
      ],
      "name": "setApprovalForAll",
      "outputs": [],
      "stateMutability": "nonpayable",
      "type": "function"
    },
    {
      "inputs": [
        {
          "internalType": "bytes4",
          "name": "interfaceId",
          "type": "bytes4"
        }
      ],
      "name": "supportsInterface",
      "outputs": [
        {
          "internalType": "bool",
          "name": "",
          "type": "bool"
        }
      ],
      "stateMutability": "view",
      "type": "function",
      "constant": true
    },
    {
      "inputs": [],
      "name": "symbol",
      "outputs": [
        {
          "internalType": "string",
          "name": "",
          "type": "string"
        }
      ],
      "stateMutability": "view",
      "type": "function",
      "constant": true
    },
    {
      "inputs": [
        {
          "internalType": "uint256",
          "name": "tokenId",
          "type": "uint256"
        }
      ],
      "name": "tokenURI",
      "outputs": [
        {
          "internalType": "string",
          "name": "",
          "type": "string"
        }
      ],
      "stateMutability": "view",
      "type": "function",
      "constant": true
    },
    {
      "inputs": [
        {
          "internalType": "address",
          "name": "from",
          "type": "address"
        },
        {
          "internalType": "address",
          "name": "to",
          "type": "address"
        },
        {
          "internalType": "uint256",
          "name": "tokenId",
          "type": "uint256"
        }
      ],
      "name": "transferFrom",
      "outputs": [],
      "stateMutability": "nonpayable",
      "type": "function"
    },
    {
      "inputs": [
        {
          "internalType": "address",
          "name": "newOwner",
          "type": "address"
        }
      ],
      "name": "transferOwnership",
      "outputs": [],
      "stateMutability": "nonpayable",
      "type": "function"
    },
    {
      "inputs": [
        {
          "internalType": "address",
          "name": "attendee",
          "type": "address"
        }
      ],
      "name": "mintTicket",
      "outputs": [
        {
          "internalType": "uint256",
          "name": "",
          "type": "uint256"
        }
      ],
      "stateMutability": "nonpayable",
      "type": "function"
    },
    {
      "inputs": [
        {
          "internalType": "uint256",
          "name": "tokenId",
          "type": "uint256"
        }
      ],
      "name": "markAsUsed",
      "outputs": [],
      "stateMutability": "nonpayable",
      "type": "function"
    },
    {
      "inputs": [
        {
          "internalType": "uint256",
          "name": "tokenId",
          "type": "uint256"
        }
      ],
      "name": "isTicketUsed",
      "outputs": [
        {
          "internalType": "bool",
          "name": "",
          "type": "bool"
        }
      ],
      "stateMutability": "view",
      "type": "function",
      "constant": true
    }
  ],
  "bytecode": "0x60806040523480156200001157600080fd5b506040518060400160405280600e81526020016d115d995b9d1b1e48151a58dad95d60921b8152506040518060400160405280600381526020016211559560ea1b815250816000908162000066919062000193565b50600162000075828262000193565b505050620000926200008c6200009860201b60201c565b6200009c565b6200025f565b3390565b600680546001600160a01b038381166001600160a01b0319831681179093556040519116919082907f8be0079c531659141344cd1fd0a4f28419497f9722a3daafe3b4186f6b6457e090600090a35050565b634e487b7160e01b600052604160045260246000fd5b600181811c908216806200011957607f821691505b6020821081036200013a57634e487b7160e01b600052602260045260246000fd5b50919050565b601f8211156200018e57600081815260208120601f850160051c81016020861015620001695750805b601f850160051c820191505b818110156200018a5782815560010162000175565b5050505b505050565b81516001600160401b03811115620001af57620001af620000ee565b620001c781620001c0845462000104565b8462000140565b602080601f831160018114620001ff5760008415620001e65750858301515b600019600386901b1c1916600185901b1785556200018a565b600085815260208120601f198616915b8281101562000230578886015182559484019460019091019084016200020f565b50858210156200024f5787850151600019600388901b60f8161c191681555b5050505050600190811b01905550565b6115fc806200026f6000396000f3fe608060405234801561001057600080fd5b50600436106101215760003560e01c80636352211e116100ad578063a22cb46511610071578063a22cb46514610267578063b88d4fde1461027a578063c87b56dd1461028d578063e985e9c5146102a0578063f2fde38b146102dc57600080fd5b80636352211e1461022057806370a0823114610233578063715018a6146102465780638da5cb5b1461024e57806395d89b411461025f57600080fd5b8063095ea7b3116100f4578063095ea7b3146101af57806323b872dd146101c45780632cd1d35c146101d757806342842e0e146101fa5780635da6a0411461020d57600080fd5b806301ffc9a71461012657806306fdde031461014e578063081812fc1461016357806308e9bd261461018e575b600080fd5b610139610134366004611166565b6102ef565b60405190151581526020015b60405180910390f35b610156610341565b60405161014591906111d3565b6101766101713660046111e6565b6103d3565b6040516001600160a01b039091168152602001610145565b6101a161019c366004611216565b6103fa565b604051908152602001610145565b6101c26101bd366004611231565b61042d565b005b6101c26101d236600461125b565b610547565b6101396101e53660046111e6565b60009081526008602052604090205460ff1690565b6101c261020836600461125b565b610578565b6101c261021b3660046111e6565b610593565b61017661022e3660046111e6565b610672565b6101a1610241366004611216565b6106d2565b6101c2610758565b6006546001600160a01b0316610176565b61015661076c565b6101c2610275366004611297565b61077b565b6101c26102883660046112e9565b61078a565b61015661029b3660046111e6565b6107c2565b6101396102ae3660046113c5565b6001600160a01b03918216600090815260056020908152604080832093909416825291909152205460ff1690565b6101c26102ea366004611216565b610836565b60006001600160e01b031982166380ac58cd60e01b148061032057506001600160e01b03198216635b5e139f60e01b145b8061033b57506301ffc9a760e01b6001600160e01b03198316145b92915050565b606060008054610350906113f8565b80601f016020809104026020016040519081016040528092919081815260200182805461037c906113f8565b80156103c95780601f1061039e576101008083540402835291602001916103c9565b820191906000526020600020905b8154815290600101906020018083116103ac57829003601f168201915b5050505050905090565b60006103de826108af565b506000908152600460205260409020546001600160a01b031690565b600061040461090e565b600780546000918261041583611432565b9190505590506104258382610968565b90505b919050565b600061043882610672565b9050806001600160a01b0316836001600160a01b0316036104aa5760405162461bcd60e51b815260206004820152602160248201527f4552433732313a20617070726f76616c20746f2063757272656e74206f776e656044820152603960f91b60648201526084015b60405180910390fd5b336001600160a01b03821614806104c657506104c681336102ae565b6105385760405162461bcd60e51b815260206004820152603d60248201527f4552433732313a20617070726f76652063616c6c6572206973206e6f7420746f60448201527f6b656e206f776e6572206f7220617070726f76656420666f7220616c6c00000060648201526084016104a1565b6105428383610982565b505050565b61055133826109f0565b61056d5760405162461bcd60e51b81526004016104a190611459565b610542838383610a6f565b6105428383836040518060200160405280600081525061078a565b61059b61090e565b6000818152600260205260409020546001600160a01b03166105f85760405162461bcd60e51b81526020600482015260166024820152752a34b1b5b2ba103237b2b9903737ba1032bc34b9ba1760511b60448201526064016104a1565b60008181526008602052604090205460ff16156106575760405162461bcd60e51b815260206004820152601d60248201527f5469636b65742068617320616c7265616479206265656e20757365642e00000060448201526064016104a1565b6000908152600860205260409020805460ff19166001179055565b6000818152600260205260408120546001600160a01b0316806104255760405162461bcd60e51b8152602060048201526018602482015277115490cdcc8c4e881a5b9d985b1a59081d1bdad95b88125160421b60448201526064016104a1565b60006001600160a01b03821661073c5760405162461bcd60e51b815260206004820152602960248201527f4552433732313a2061646472657373207a65726f206973206e6f7420612076616044820152683634b21037bbb732b960b91b60648201526084016104a1565b506001600160a01b031660009081526003602052604090205490565b61076061090e565b61076a6000610bd3565b565b606060018054610350906113f8565b610786338383610c25565b5050565b61079433836109f0565b6107b05760405162461bcd60e51b81526004016104a190611459565b6107bc84848484610cf3565b50505050565b60606107cd826108af565b60006107e460408051602081019091526000815290565b90506000815111610804576040518060200160405280600081525061082f565b8061080e84610d26565b60405160200161081f9291906114a6565b6040516020818303038152906040525b9392505050565b61083e61090e565b6001600160a01b0381166108a35760405162461bcd60e51b815260206004820152602660248201527f4f776e61626c653a206e6577206f776e657220697320746865207a65726f206160448201526564647265737360d01b60648201526084016104a1565b6108ac81610bd3565b50565b6000818152600260205260409020546001600160a01b03166108ac5760405162461bcd60e51b8152602060048201526018602482015277115490cdcc8c4e881a5b9d985b1a59081d1bdad95b88125160421b60448201526064016104a1565b6006546001600160a01b0316331461076a5760405162461bcd60e51b815260206004820181905260248201527f4f776e61626c653a2063616c6c6572206973206e6f7420746865206f776e657260448201526064016104a1565b610786828260405180602001604052806000815250610db9565b600081815260046020526040902080546001600160a01b0319166001600160a01b03841690811790915581906109b782610672565b6001600160a01b03167f8c5be1e5ebec7d5bd14f71427d1e84f3dd0314c0f7b2291e5b200ac8c7c3b92560405160405180910390a45050565b6000806109fc83610672565b9050806001600160a01b0316846001600160a01b03161480610a4357506001600160a01b0380821660009081526005602090815260408083209388168352929052205460ff165b80610a675750836001600160a01b0316610a5c846103d3565b6001600160a01b0316145b949350505050565b826001600160a01b0316610a8282610672565b6001600160a01b031614610aa85760405162461bcd60e51b81526004016104a1906114d5565b6001600160a01b038216610b0a5760405162461bcd60e51b8152602060048201526024808201527f4552433732313a207472616e7366657220746f20746865207a65726f206164646044820152637265737360e01b60648201526084016104a1565b826001600160a01b0316610b1d82610672565b6001600160a01b031614610b435760405162461bcd60e51b81526004016104a1906114d5565b600081815260046020908152604080832080546001600160a01b03199081169091556001600160a01b0387811680865260038552838620805460001901905590871680865283862080546001019055868652600290945282852080549092168417909155905184937fddf252ad1be2c89b69c2b068fc378daa952ba7f163c4a11628f55a4df523b3ef91a4505050565b600680546001600160a01b038381166001600160a01b0319831681179093556040519116919082907f8be0079c531659141344cd1fd0a4f28419497f9722a3daafe3b4186f6b6457e090600090a35050565b816001600160a01b0316836001600160a01b031603610c865760405162461bcd60e51b815260206004820152601960248201527f4552433732313a20617070726f766520746f2063616c6c65720000000000000060448201526064016104a1565b6001600160a01b03838116600081815260056020908152604080832094871680845294825291829020805460ff191686151590811790915591519182527f17307eab39ab6107e8899845ad3d59bd9653f200f220920489ca2b5937696c31910160405180910390a3505050565b610cfe848484610a6f565b610d0a84848484610dec565b6107bc5760405162461bcd60e51b81526004016104a19061151a565b60606000610d3383610eed565b600101905060008167ffffffffffffffff811115610d5357610d536112d3565b6040519080825280601f01601f191660200182016040528015610d7d576020820181803683370190505b5090508181016020015b600019016f181899199a1a9b1b9c1cb0b131b232b360811b600a86061a8153600a8504945084610d8757509392505050565b610dc38383610fc5565b610dd06000848484610dec565b6105425760405162461bcd60e51b81526004016104a19061151a565b60006001600160a01b0384163b15610ee257604051630a85bd0160e11b81526001600160a01b0385169063150b7a0290610e3090339089908890889060040161156c565b6020604051808303816000875af1925050508015610e6b575060408051601f3d908101601f19168201909252610e68918101906115a9565b60015b610ec8573d808015610e99576040519150601f19603f3d011682016040523d82523d6000602084013e610e9e565b606091505b508051600003610ec05760405162461bcd60e51b81526004016104a19061151a565b805181602001fd5b6001600160e01b031916630a85bd0160e11b149050610a67565b506001949350505050565b60008072184f03e93ff9f4daa797ed6e38ed64bf6a1f0160401b8310610f2c5772184f03e93ff9f4daa797ed6e38ed64bf6a1f0160401b830492506040015b6d04ee2d6d415b85acef81000000008310610f58576d04ee2d6d415b85acef8100000000830492506020015b662386f26fc100008310610f7657662386f26fc10000830492506010015b6305f5e1008310610f8e576305f5e100830492506008015b6127108310610fa257612710830492506004015b60648310610fb4576064830492506002015b600a83106104255760010192915050565b6001600160a01b03821661101b5760405162461bcd60e51b815260206004820181905260248201527f4552433732313a206d696e7420746f20746865207a65726f206164647265737360448201526064016104a1565b6000818152600260205260409020546001600160a01b0316156110805760405162461bcd60e51b815260206004820152601c60248201527f4552433732313a20746f6b656e20616c7265616479206d696e7465640000000060448201526064016104a1565b6000818152600260205260409020546001600160a01b0316156110e55760405162461bcd60e51b815260206004820152601c60248201527f4552433732313a20746f6b656e20616c7265616479206d696e7465640000000060448201526064016104a1565b6001600160a01b038216600081815260036020908152604080832080546001019055848352600290915280822080546001600160a01b0319168417905551839291907fddf252ad1be2c89b69c2b068fc378daa952ba7f163c4a11628f55a4df523b3ef908290a45050565b6001600160e01b0319811681146108ac57600080fd5b60006020828403121561117857600080fd5b813561082f81611150565b60005b8381101561119e578181015183820152602001611186565b50506000910152565b600081518084526111bf816020860160208601611183565b601f01601f19169290920160200192915050565b60208152600061082f60208301846111a7565b6000602082840312156111f857600080fd5b5035919050565b80356001600160a01b038116811461042857600080fd5b60006020828403121561122857600080fd5b61082f826111ff565b6000806040838503121561124457600080fd5b61124d836111ff565b946020939093013593505050565b60008060006060848603121561127057600080fd5b611279846111ff565b9250611287602085016111ff565b9150604084013590509250925092565b600080604083850312156112aa57600080fd5b6112b3836111ff565b9150602083013580151581146112c857600080fd5b809150509250929050565b634e487b7160e01b600052604160045260246000fd5b600080600080608085870312156112ff57600080fd5b611308856111ff565b9350611316602086016111ff565b925060408501359150606085013567ffffffffffffffff8082111561133a57600080fd5b818701915087601f83011261134e57600080fd5b813581811115611360576113606112d3565b604051601f8201601f19908116603f01168101908382118183101715611388576113886112d3565b816040528281528a60208487010111156113a157600080fd5b82602086016020830137600060208483010152809550505050505092959194509250565b600080604083850312156113d857600080fd5b6113e1836111ff565b91506113ef602084016111ff565b90509250929050565b600181811c9082168061140c57607f821691505b60208210810361142c57634e487b7160e01b600052602260045260246000fd5b50919050565b60006001820161145257634e487b7160e01b600052601160045260246000fd5b5060010190565b6020808252602d908201527f4552433732313a2063616c6c6572206973206e6f7420746f6b656e206f776e6560408201526c1c881bdc88185c1c1c9bdd9959609a1b606082015260800190565b600083516114b8818460208801611183565b8351908301906114cc818360208801611183565b01949350505050565b60208082526025908201527f4552433732313a207472616e736665722066726f6d20696e636f72726563742060408201526437bbb732b960d91b606082015260800190565b60208082526032908201527f4552433732313a207472616e7366657220746f206e6f6e20455243373231526560408201527131b2b4bb32b91034b6b83632b6b2b73a32b960711b606082015260800190565b6001600160a01b038581168252841660208201526040810183905260806060820181905260009061159f908301846111a7565b9695505050505050565b6000602082840312156115bb57600080fd5b815161082f8161115056fea26469706673582212201ca229932dfe79e014335601dea098ea1adec52e3a32590f7e09c8b73311c89464736f6c63430008110033",
  "immutableReferences": {},
  "source": "// SPDX-License-Identifier: MIT\r\npragma solidity ^0.8.17;\r\n\r\nimport \"@openzeppelin/contracts/token/ERC721/ERC721.sol\";\r\nimport \"@openzeppelin/contracts/access/Ownable.sol\";\r\n\r\ncontract EventTicket is ERC721, Ownable {\r\n    uint256 private _nextTokenId;\r\n\r\n    // Mapping to track if a ticket has been used for check-in\r\n    mapping(uint256 => bool) private _isUsed;\r\n\r\n    constructor() ERC721(\"Evently Ticket\", \"EVT\") {\r\n        // In OpenZeppelin v4, the deployer is automatically set as the owner.\r\n    }\r\n\r\n    function mintTicket(address attendee) public onlyOwner returns (uint256) {\r\n        uint256 tokenId = _nextTokenId++;\r\n        _safeMint(attendee, tokenId);\r\n        return tokenId;\r\n    }\r\n\r\n    function markAsUsed(uint256 tokenId) public onlyOwner {\r\n        require(_ownerOf(tokenId) != address(0), \"Ticket does not exist.\");\r\n        require(!_isUsed[tokenId], \"Ticket has already been used.\");\r\n        _isUsed[tokenId] = true;\r\n    }\r\n\r\n    function isTicketUsed(uint256 tokenId) public view returns (bool) {\r\n        return _isUsed[tokenId];\r\n    }\r\n}",
  "sourcePath": "E:\\Evenlty Backend\\evently-backend\\contracts\\EventTicket.sol",
  "compiler": {
    "name": "solc",
    "version": "0.8.17+commit.8df45f5f.Emscripten.clang"
  },
  "schemaVersion": "3.4.16",
  "updatedAt": "2025-07-25T16:27:49.138Z",
  "networkType": "ethereum",
  "devdoc": {
    "kind": "dev",
    "methods": {
      "approve(address,uint256)": {
        "details": "See {IERC721-approve}."
      },
      "balanceOf(address)": {
        "details": "See {IERC721-balanceOf}."
      },
      "getApproved(uint256)": {
        "details": "See {IERC721-getApproved}."
      },
      "isApprovedForAll(address,address)": {
        "details": "See {IERC721-isApprovedForAll}."
      },
      "name()": {
        "details": "See {IERC721Metadata-name}."
      },
      "owner()": {
        "details": "Returns the address of the current owner."
      },
      "ownerOf(uint256)": {
        "details": "See {IERC721-ownerOf}."
      },
      "renounceOwnership()": {
        "details": "Leaves the contract without owner. It will not be possible to call `onlyOwner` functions. Can only be called by the current owner. NOTE: Renouncing ownership will leave the contract without an owner, thereby disabling any functionality that is only available to the owner."
      },
      "safeTransferFrom(address,address,uint256)": {
        "details": "See {IERC721-safeTransferFrom}."
      },
      "safeTransferFrom(address,address,uint256,bytes)": {
        "details": "See {IERC721-safeTransferFrom}."
      },
      "setApprovalForAll(address,bool)": {
        "details": "See {IERC721-setApprovalForAll}."
      },
      "supportsInterface(bytes4)": {
        "details": "See {IERC165-supportsInterface}."
      },
      "symbol()": {
        "details": "See {IERC721Metadata-symbol}."
      },
      "tokenURI(uint256)": {
        "details": "See {IERC721Metadata-tokenURI}."
      },
      "transferFrom(address,address,uint256)": {
        "details": "See {IERC721-transferFrom}."
      },
      "transferOwnership(address)": {
        "details": "Transfers ownership of the contract to a new account (`newOwner`). Can only be called by the current owner."
      }
    },
    "version": 1
  },
  "userdoc": {
    "kind": "user",
    "methods": {},
    "version": 1
  }
}